:020000040000FA
:0400000098EF39F04C
:10732B0001000000012B0EF66E730EF76E000EF8C7
:10733B006E00EE0DF010EE05F00900F5CFEEFFE557
:10734B0050E150FAE1000EF86E0001ADEF39F0009C
:10735B000E956E000E8C6E938E938CF19ECCEF3946
:10736B00F0BDEC3AF0CCEF39F057EC3CF0CCEF3908
:10737B00F08AEC3BF0CCEF39F038EC3DF0CCEF3948
:10738B00F02DEC3EF0CCEF39F0F3EC39F011500B63
:10739B006E0C6A0C50000AD8B4D6EF39F0CCEF392A
:1073AB00F00B50010AD8B4B6EF39F0030AD8B4BACF
:1073BB00EF39F0010AD8B4BEEF39F0070AD8B4C2DE
:1073CB00EF39F0010AD8B4C6EF39F0030AD8B4CAC2
:1073DB00EF39F0CCEF39F000EF00F0000E046E0047
:1073EB000E036E03500410D8A4FEEF39F000EF3AF1
:1073FB00F004EF3AF0550E8C6E06EF3AF0AA0E8CB5
:10740B006E0D040E100F101010D8A40FEF3AF011E0
:10741B00EF3AF01AEF3AF0820E016EDE0EE82EFE16
:10742B00D7012EFCD768EF3AF0020E0D180E100F95
:10743B00101010D8A424EF3AF026EF3AF034EF3ABC
:10744B00F0020E026E040E016EBA0EE82EFED7018C
:10745B002EFCD7022EFAD700D068EF3AF0030E0DB0
:10746B00180E100F101010D8A43EEF3AF040EF3A60
:10747B00F04EEF3AF0030E026E080E016E770EE837
:10748B002EFED7012EFCD7022EFAD700F068EF3A6A
:10749B00F0040E0D180E100F101010D8A458EF3A60
:1074AB00F05AEF3AF068EF3AF0050E026E0F0E014C
:1074BB006EF10EE82EFED7012EFCD7022EFAD70066
:1074CB00F068EF3AF081BC6DEF3AF06FEF3AF09065
:1074DB00EF3AF0820E016EDE0EE82EFED7012EFC87
:1074EB00D7010E0D26000E0E220F221022050E0DB7
:1074FB00180E100F101010D8A486EF3AF088EF3A40
:10750B00F090EF3AF0010E0D6E000E0E6E000E0FA6
:10751B006E000E106E81BE95EF3AF097EF3AF0AC1D
:10752B00EF3AF0820E016EDE0EE82EFED7012EFC36
:10753B00D7112A070E1118D8A4A6EF3AF0A8EF3AE4
:10754B00F0BCEF3AF0010E116EBCEF3AF0034A04B7
:10755B002A04BEBAEF3AF0045009E1020E035CD8DC
:10756B00A0BAEF3AF0BCEF3AF0F7EF39F0120000A7
:10757B000E046E000E036E04BECDEF3AF0045009FC
:10758B00E1080E035CD8A0CDEF3AF0CFEF3AF0D183
:10759B00EF3AF089EF3BF003C001F0010E026E01F0
:1075AB002ADAEF3AF0D8900236012ED8EF3AF002F1
:1075BB00508C6E0D040E100F101010D8A4E8EF3A7B
:1075CB00F0EAEF3AF0F3EF3AF0820E016EDE0EE8DE
:1075DB002EFED7012EFCD741EF3BF0020E0D180EFD
:1075EB00100F101010D8A4FDEF3AF0FFEF3AF00D8A
:1075FB00EF3BF0020E026E040E016EBA0EE82EFE89
:10760B00D7012EFCD7022EFAD700D041EF3BF00367
:10761B000E0D180E100F101010D8A417EF3BF01909
:10762B00EF3BF027EF3BF0030E026E080E016E7777
:10763B000EE82EFED7012EFCD7022EFAD700F04112
:10764B00EF3BF0040E0D180E100F101010D8A431D4
:10765B00EF3BF033EF3BF041EF3BF0050E026E0FCB
:10766B000E016EF10EE82EFED7012EFCD7022EFA7C
:10767B00D700F041EF3BF081BC46EF3BF048EF3BCE
:10768B00F069EF3BF0820E016EDE0EE82EFED701A5
:10769B002EFCD7010E0D26000E0E220F22102205F6
:1076AB000E0D180E100F101010D8A45FEF3BF061E9
:1076BB00EF3BF069EF3BF0010E0D6E000E0E6E000E
:1076CB000E0F6E000E106E81BE6EEF3BF070EF3B37
:1076DB00F085EF3BF0820E016EDE0EE82EFED70139
:1076EB002EFCD7112A070E1118D8A47FEF3BF0817F
:1076FB00EF3BF089EF3BF0010E116E89EF3BF0038E
:10770B004A042AC1EF3AF01200000E046E000E0379
:10771B006E04BE9AEF3BF0045009E1090E035CD8EE
:10772B00A09AEF3BF09CEF3BF09EEF3BF056EF3C0B
:10773B00F003C001F0010E026E012AA7EF3BF0D857
:10774B00900236012EA5EF3BF002048C6E0D040E59
:10775B00100F101010D8A4B5EF3BF0B7EF3BF0C0F3
:10776B00EF3BF0820E016EDE0EE82EFED7012EFCF3
:10777B00D70EEF3CF0020E0D180E100F101010D894
:10778B00A4CAEF3BF0CCEF3BF0DAEF3BF0020E027A
:10779B006E040E016EBA0EE82EFED7012EFCD70238
:1077AB002EFAD700D00EEF3CF0030E0D180E100F73
:1077BB00101010D8A4E4EF3BF0E6EF3BF0F4EF3BF6
:1077CB00F0030E026E080E016E770EE82EFED70147
:1077DB002EFCD7022EFAD700F00EEF3CF0040E0D64
:1077EB00180E100F101010D8A4FEEF3BF000EF3C5A
:1077FB00F00EEF3CF0050E026E0F0E016EF10EE86F
:10780B002EFED7012EFCD7022EFAD700F00EEF3C3E
:10781B00F081BC13EF3CF015EF3CF036EF3CF082FF
:10782B000E016EDE0EE82EFED7012EFCD7010E0DDB
:10783B0026000E0E220F221022050E0D180E100F11
:10784B00101010D8A42CEF3CF02EEF3CF036EF3C90
:10785B00F0010E0D6E000E0E6E000E0F6E000E1070
:10786B006E81BE3BEF3CF03DEF3CF052EF3CF082C3
:10787B000E016EDE0EE82EFED7012EFCD7112A0765
:10788B000E1118D8A44CEF3CF04EEF3CF056EF3CE9
:10789B00F0010E116E56EF3CF0034A042A8EEF3BBB
:1078AB00F01200000E086E000E076E000E066E073B
:1078BB000E056E08BE6BEF3CF0085009E1080E0791
:1078CB005CD8A06BEF3CF06DEF3CF06FEF3CF0370A
:1078DB00EF3DF005C001F0010E026E012A78EF3C7E
:1078EB00F0D8900236012E76EF3CF007C003F00182
:1078FB000E046E032A84EF3CF0D8900436032E82DC
:10790B00EF3CF0045002248C6E0D040E100F10107F
:10791B0010D8A493EF3CF095EF3CF09EEF3CF08237
:10792B000E016EDE0EE82EFED7012EFCD7ECEF3CDF
:10793B00F0020E0D180E100F101010D8A4A8EF3C6B
:10794B00F0AAEF3CF0B8EF3CF0020E026E040E0111
:10795B006EBA0EE82EFED7012EFCD7022EFAD700F8
:10796B00D0ECEF3CF0030E0D180E100F101010D8CA
:10797B00A4C2EF3CF0C4EF3CF0D2EF3CF0030E029C
:10798B006E080E016E770EE82EFED7012EFCD70285
:10799B002EFAD700F0ECEF3CF0040E0D180E100F82
:1079AB00101010D8A4DCEF3CF0DEEF3CF0ECEF3C19
:1079BB00F0050E026E0F0E016EF10EE82EFED701D2
:1079CB002EFCD7022EFAD700F0ECEF3CF081BCF185
:1079DB00EF3CF0F3EF3CF014EF3DF0820E016EDE66
:1079EB000EE82EFED7012EFCD7010E0D26000E0E33
:1079FB00220F221022050E0D180E100F101010D88A
:107A0B00A40AEF3DF00CEF3DF014EF3DF0010E0D2D
:107A1B006E000E0E6E000E0F6E000E106E81BE19F4
:107A2B00EF3DF01BEF3DF030EF3DF0820E016EDECF
:107A3B000EE82EFED7012EFCD7112A070E1118D8EF
:107A4B00A42AEF3DF02CEF3DF037EF3DF0010E1186
:107A5B006E37EF3DF0074A082A0506D8A006065FE9
:107A6B00EF3CF01200000E076E000E066E000E09C2
:107A7B006E000E086E000E056E000E046E065008AA
:107A8B00248C6E04C001F0010E026E000E036E0119
:107A9B002A53EF3DF0D89002360336012E50EF3DBE
:107AAB00F00F0E0216000E031602500626035007A7
:107ABB002204500708016E010E026E000E036E01C8
:107ACB002A6BEF3DF0D89002360336012E68EF3D5E
:107ADB00F0F00E0216000E03160250082603500992
:107AEB00220D040E100F101010D8A47FEF3DF08163
:107AFB00EF3DF08AEF3DF0820E016EDE0EE82EFEBA
:107B0B00D7012EFCD7D8EF3DF0020E0D180E100F3B
:107B1B00101010D8A494EF3DF096EF3DF0A4EF3D7C
:107B2B00F0020E026E040E016EBA0EE82EFED701A5
:107B3B002EFCD7022EFAD700D0D8EF3DF0030E0D56
:107B4B00180E100F101010D8A4AEEF3DF0B0EF3D93
:107B5B00F0BEEF3DF0030E026E080E016E770EE8DD
:107B6B002EFED7012EFCD7022EFAD700F0D8EF3D10
:107B7B00F0040E0D180E100F101010D8A4C8EF3D06
:107B8B00F0CAEF3DF0D8EF3DF0050E026E0F0E017F
:107B9B006EF10EE82EFED7012EFCD7022EFAD7007F
:107BAB00F0D8EF3DF081BCDDEF3DF0DFEF3DF000B5
:107BBB00EF3EF0820E016EDE0EE82EFED7012EFC9C
:107BCB00D7010E0D26000E0E220F221022050E0DD0
:107BDB00180E100F101010D8A4F6EF3DF0F8EF3D73
:107BEB00F000EF3EF0010E0D6E000E0E6E000E0F4C
:107BFB006E000E106E81BE05EF3EF007EF3EF01CDF
:107C0B00EF3EF0820E016EDE0EE82EFED7012EFC4B
:107C1B00D7112A070E1118D8A416EF3EF018EF3E15
:107C2B00F02CEF3EF0010E116E2CEF3EF0044A05E6
:107C3B002A05BE2AEF3EF0055009E1050E045CD87B
:107C4B00A02AEF3EF02CEF3EF044EF3DF012000087
:107C5B000E086E000E076E08BE3DEF3EF008500991
:107C6B00E1060E075CD8A03DEF3EF03FEF3EF04142
:107C7B00EF3EF017EF3FF007C001F0020E012601B7
:107C8B000E026E012A4CEF3EF0D8900236012E4ABE
:107C9B00EF3EF007C003F0010E0326010E046E0346
:107CAB002A5AEF3EF0D8900436032E58EF3EF007D9
:107CBB00C005F0010E066E052A66EF3EF0D8900661
:107CCB0036052E64EF3EF00650042402248C6E0D14
:107CDB00040E100F101010D8A476EF3EF078EF3E84
:107CEB00F081EF3EF0820E016EDE0EE82EFED70124
:107CFB002EFCD7CFEF3EF0020E0D180E100F10100A
:107D0B0010D8A48BEF3EF08DEF3EF09BEF3EF002D0
:107D1B000E026E040E016EBA0EE82EFED7012EFC7B
:107D2B00D7022EFAD700D0CFEF3EF0030E0D180E70
:107D3B00100F101010D8A4A5EF3EF0A7EF3EF0B532
:107D4B00EF3EF0030E026E080E016E770EE82EFE6C
:107D5B00D7012EFCD7022EFAD700F0CFEF3EF0045E
:107D6B000E0D180E100F101010D8A4BFEF3EF0C15F
:107D7B00EF3EF0CFEF3EF0050E026E0F0E016EF1EF
:107D8B000EE82EFED7012EFCD7022EFAD700F0CF2D
:107D9B00EF3EF081BCD4EF3EF0D6EF3EF0F7EF3E76
:107DAB00F0820E016EDE0EE82EFED7012EFCD701FF
:107DBB000E0D26000E0E220F221022050E0D180E90
:107DCB00100F101010D8A4EDEF3EF0EFEF3EF0F7D0
:107DDB00EF3EF0010E0D6E000E0E6E000E0F6E00DC
:107DEB000E106E81BEFCEF3EF0FEEF3EF013EF3F48
:107DFB00F0820E016EDE0EE82EFED7012EFCD7119F
:107E0B002A070E1118D8A40DEF3FF00FEF3FF0FF2C
:107E1B00EF3FF0010E116EFFEF3FF0074A082A31DA
:107E2B00EF3EF0000E0A6E060E096E0ABE28EF3FFB
:107E3B00F00A5006E10904D8B026EF3FF028EF3FD7
:107E4B00F02AEF3FF0FFEF3FF009C001F0010E0108
:107E5B0026010E026E012A35EF3FF0D89002360153
:107E6B002E33EF3FF009C003F0010E046E032A41DD
:107E7B00EF3FF0D8900436032E3FEF3FF009C005DB
:107E8B00F0FF0E0526010E066E052A4FEF3FF0D8C8
:107E9B00900636052E4DEF3FF00650042402248C3D
:107EAB006E0D040E100F101010D8A45FEF3FF06191
:107EBB00EF3FF06AEF3FF0820E016EDE0EE82EFE12
:107ECB00D7012EFCD7B8EF3FF0020E0D180E100F96
:107EDB00101010D8A474EF3FF076EF3FF084EF3F13
:107EEB00F0020E026E040E016EBA0EE82EFED701E2
:107EFB002EFCD7022EFAD700D0B8EF3FF0030E0DB1
:107F0B00180E100F101010D8A48EEF3FF090EF3F0B
:107F1B00F09EEF3FF0030E026E080E016E770EE837
:107F2B002EFED7012EFCD7022EFAD700F0B8EF3F6A
:107F3B00F0040E0D180E100F101010D8A4A8EF3F60
:107F4B00F0AAEF3FF0B8EF3FF0050E026E0F0E01F7
:107F5B006EF10EE82EFED7012EFCD7022EFAD700BB
:107F6B00F0B8EF3FF081BCBDEF3FF0BFEF3FF0E06B
:107F7B00EF3FF0820E016EDE0EE82EFED7012EFCD7
:107F8B00D7010E0D26000E0E220F221022050E0D0C
:107F9B00180E100F101010D8A4D6EF3FF0D8EF3FEB
:107FAB00F0E0EF3FF0010E0D6E000E0E6E000E0FA7
:107FBB006E000E106E81BEE5EF3FF0E7EF3FF0FA7B
:107FCB00EF3FF0820E016EDE0EE82EFED7012EFC87
:107FDB00D7112A070E1118D8A4F6EF3FF0F8EF3F90
:107FEB00F0FFEF3FF00FEF3FF00906D8A00A061B9A
:057FFB00EF3FF0120051
:020000040020DA
:08000000FFFFFFFFFFFFFFFF00
:020000040030CA
:0E00000000091F1EFF8181FF0FC00FE00F409F
:00000001FF
