:020000040000FA
:040000003EEF3AF0A5
:107477000100000001770EF66E740EF76E000EF82D
:107487006E00EE0DF010EE05F00900F5CFEEFFE50A
:1074970050E150FAE1000EF86E000153EF3AF000A8
:1074A7000E956E000E8C6E938E938CF19E81BE5F4F
:1074B700EF3AF061EF3AF08EEF3AF0820E0B6EDEA4
:1074C7000EE82EFED70B2EFCD7112A070E1118D85F
:1074D700A470EF3AF072EF3AF08EEF3AF0010E1126
:1074E7006E8EEF3AF063EC3BF05AEF3AF0C5EC3CA6
:1074F700F05AEF3AF014EC3CF05AEF3AF08AEC3DD0
:10750700F05AEF3AF063EC3EF05AEF3AF0B5EC3A46
:10751700F05AEF3AF011500B6E0C6A0C50000AD873
:10752700B498EF3AF05AEF3AF00B50010AD8B47614
:10753700EF3AF0030AD8B47AEF3AF0010AD8B47EEA
:10754700EF3AF0070AD8B482EF3AF0010AD8B486C6
:10755700EF3AF0030AD8B48AEF3AF05AEF3AF0005C
:10756700EF00F0000E046E000E036E03500410D8F7
:10757700A4C0EF3AF0C2EF3AF0C6EF3AF0550E8CDE
:107587006EC8EF3AF0AA0E8C6E0D040E100F101095
:1075970010D8A4D1EF3AF0D3EF3AF0DCEF3AF0820B
:1075A7000E016EDE0EE82EFED7012EFCD72AEF3B2A
:1075B700F0020E0D180E100F101010D8A4E6EF3AB7
:1075C700F0E8EF3AF0F6EF3AF0020E026E040E0121
:1075D7006EBA0EE82EFED7012EFCD7022EFAD70080
:1075E700D02AEF3BF0030E0D180E100F101010D815
:1075F700A400EF3BF002EF3BF010EF3BF0030E026D
:107607006E080E016E770EE82EFED7012EFCD7020C
:107617002EFAD700F02AEF3BF0040E0D180E100FCC
:10762700101010D8A41AEF3BF01CEF3BF02AEF3BE9
:10763700F0050E026E0F0E016EF10EE82EFED70159
:107647002EFCD7022EFAD700F02AEF3BF081BC2F91
:10765700EF3BF031EF3BF052EF3BF0820E016EDE75
:107667000EE82EFED7012EFCD7010E0D26000E0EBA
:10767700220F221022050E0D180E100F101010D811
:10768700A448EF3BF04AEF3BF052EF3BF0010E0D01
:107697006E000E0E6E000E0F6E000E106E034A0483
:1076A7002A04BE60EF3BF0045009E1020E035CD8E8
:1076B700A060EF3BF062EF3BF0B9EF3AF012000049
:1076C7000E046E000E036E04BE73EF3BF004500908
:1076D700E1080E035CD8A073EF3BF075EF3BF07742
:1076E700EF3BF013EF3CF003C001F0010E026E0117
:1076F7002A80EF3BF0D8900236012E7EEF3BF00256
:10770700508C6E0D040E100F101010D8A48EEF3B86
:10771700F090EF3BF099EF3BF0820E016EDE0EE842
:107727002EFED7012EFCD7E7EF3BF0020E0D180E09
:10773700100F101010D8A4A3EF3BF0A5EF3BF0B348
:10774700EF3BF0020E026E040E016EBA0EE82EFE3B
:10775700D7012EFCD7022EFAD700D0E7EF3BF00374
:107767000E0D180E100F101010D8A4BDEF3BF0BF70
:10777700EF3BF0CDEF3BF0030E026E080E016E7784
:107787000EE82EFED7012EFCD7022EFAD700F0E71F
:10779700EF3BF0040E0D180E100F101010D8A4D7E1
:1077A700EF3BF0D9EF3BF0E7EF3BF0050E026E0F32
:1077B7000E016EF10EE82EFED7012EFCD7022EFA2F
:1077C700D700F0E7EF3BF081BCECEF3BF0EEEF3B8F
:1077D700F00FEF3CF0820E016EDE0EE82EFED701B1
:1077E7002EFCD7010E0D26000E0E220F22102205A9
:1077F7000E0D180E100F101010D8A405EF3CF0074F
:10780700EF3CF00FEF3CF0010E0D6E000E0E6E0018
:107817000E0F6E000E106E034A042A67EF3BF0123C
:1078270000000E046E000E036E04BE24EF3CF0044D
:107837005009E1090E035CD8A024EF3CF026EF3C89
:10784700F028EF3CF0C4EF3CF003C001F0010E025A
:107857006E012A31EF3CF0D8900236012E2FEF3C13
:10786700F002048C6E0D040E100F101010D8A43FF8
:10787700EF3CF041EF3CF04AEF3CF0820E016EDE48
:107887000EE82EFED7012EFCD798EF3CF0020E0D26
:10789700180E100F101010D8A454EF3CF056EF3C00
:1078A700F064EF3CF0020E026E040E016EBA0EE8B1
:1078B7002EFED7012EFCD7022EFAD700D098EF3C28
:1078C700F0030E0D180E100F101010D8A46EEF3C19
:1078D700F070EF3CF07EEF3CF0030E026E080E01F5
:1078E7006E770EE82EFED7012EFCD7022EFAD700B0
:1078F700F098EF3CF0040E0D180E100F101010D872
:10790700A488EF3CF08AEF3CF098EF3CF0050E02BC
:107917006E0F0E016EF10EE82EFED7012EFCD70278
:107927002EFAD700F098EF3CF081BC9DEF3CF09F1A
:10793700EF3CF0C0EF3CF0820E016EDE0EE82EFE4B
:10794700D7012EFCD7010E0D26000E0E220F221096
:1079570022050E0D180E100F101010D8A4B6EF3C0C
:10796700F0B8EF3CF0C0EF3CF0010E0D6E000E0ECC
:107977006E000E0F6E000E106E034A042A18EF3CBD
:10798700F01200000E086E000E076E000E066E075E
:107997000E056E08BED9EF3CF0085009E1080E0746
:1079A7005CD8A0D9EF3CF0DBEF3CF0DDEF3CF08991
:1079B700EF3DF005C001F0010E026E012AE6EF3C33
:1079C700F0D8900236012EE4EF3CF007C003F00137
:1079D7000E046E032AF2EF3CF0D8900436032EF023
:1079E700EF3CF0045002248C6E0D040E100F1010A3
:1079F70010D8A401EF3DF003EF3DF00CEF3DF0820E
:107A07000E016EDE0EE82EFED7012EFCD75AEF3D93
:107A1700F0020E0D180E100F101010D8A416EF3D1F
:107A2700F018EF3DF026EF3DF0020E026E040E0156
:107A37006EBA0EE82EFED7012EFCD7022EFAD7001B
:107A4700D05AEF3DF0030E0D180E100F101010D87E
:107A5700A430EF3DF032EF3DF040EF3DF0030E0272
:107A67006E080E016E770EE82EFED7012EFCD702A8
:107A77002EFAD700F05AEF3DF0040E0D180E100F36
:107A8700101010D8A44AEF3DF04CEF3DF05AEF3DEF
:107A9700F0050E026E0F0E016EF10EE82EFED701F5
:107AA7002EFCD7022EFAD700F05AEF3DF081BC5FCB
:107AB700EF3DF061EF3DF082EF3DF0820E016EDEAB
:107AC7000EE82EFED7012EFCD7010E0D26000E0E56
:107AD700220F221022050E0D180E100F101010D8AD
:107AE700A478EF3DF07AEF3DF082EF3DF0010E0D07
:107AF7006E000E0E6E000E0F6E000E106E074A0817
:107B07002A0506D8A00606CDEF3CF01200000E07A6
:107B17006E000E066E000E096E000E086E000E0552
:107B27006E000E046E065008248C6E04C001F0012E
:107B37000E026E000E036E012AA5EF3DF0D89002EB
:107B4700360336012EA2EF3DF00F0E0216000E038C
:107B570016025006260350072204500708016E013B
:107B67000E026E000E036E012ABDEF3DF0D89002A3
:107B7700360336012EBAEF3DF0F00E0216000E0363
:107B87001602500826035009220D040E100F10107C
:107B970010D8A4D1EF3DF0D3EF3DF0DCEF3DF082FC
:107BA7000E016EDE0EE82EFED7012EFCD72AEF3E21
:107BB700F0020E0D180E100F101010D8A4E6EF3DAE
:107BC700F0E8EF3DF0F6EF3DF0020E026E040E0115
:107BD7006EBA0EE82EFED7012EFCD7022EFAD7007A
:107BE700D02AEF3EF0030E0D180E100F101010D80C
:107BF700A400EF3EF002EF3EF010EF3EF0030E025E
:107C07006E080E016E770EE82EFED7012EFCD70206
:107C17002EFAD700F02AEF3EF0040E0D180E100FC3
:107C2700101010D8A41AEF3EF01CEF3EF02AEF3EDA
:107C3700F0050E026E0F0E016EF10EE82EFED70153
:107C47002EFCD7022EFAD700F02AEF3EF081BC2F88
:107C5700EF3EF031EF3EF052EF3EF0820E016EDE66
:107C67000EE82EFED7012EFCD7010E0D26000E0EB4
:107C7700220F221022050E0D180E100F101010D80B
:107C8700A448EF3EF04AEF3EF052EF3EF0010E0DF2
:107C97006E000E0E6E000E0F6E000E106E044A057B
:107CA7002A05BE60EF3EF0055009E1050E045CD8D9
:107CB700A060EF3EF062EF3EF096EF3DF01200005D
:107CC7000E086E000E076E08BE73EF3EF0085009EF
:107CD700E1060E075CD8A073EF3EF075EF3EF07734
:107CE700EF3EF031EF3FF007C001F0020E01260131
:107CF7000E026E012A82EF3EF0D8900236012E80E6
:107D0700EF3EF007C003F0010E0326010E046E03D9
:107D17002A90EF3EF0D8900436032E8EEF3EF00700
:107D2700C005F0010E066E052A9CEF3EF0D89006BE
:107D370036052E9AEF3EF00650042402248C6E0D71
:107D4700040E100F101010D8A4ACEF3EF0AEEF3EAB
:107D5700F0B7EF3EF0820E016EDE0EE82EFED70181
:107D67002EFCD705EF3FF0020E0D180E100F101066
:107D770010D8A4C1EF3EF0C3EF3EF0D1EF3EF002C2
:107D87000E026E040E016EBA0EE82EFED7012EFC0F
:107D9700D7022EFAD700D005EF3FF0030E0D180ECD
:107DA700100F101010D8A4DBEF3EF0DDEF3EF0EB24
:107DB700EF3EF0030E026E080E016E770EE82EFE00
:107DC700D7012EFCD7022EFAD700F005EF3FF004BB
:107DD7000E0D180E100F101010D8A4F5EF3EF0F787
:107DE700EF3EF005EF3FF0050E026E0F0E016EF14C
:107DF7000EE82EFED7012EFCD7022EFAD700F0058B
:107E0700EF3FF081BC0AEF3FF00CEF3FF02DEF3F63
:107E1700F0820E016EDE0EE82EFED7012EFCD70192
:107E27000E0D26000E0E220F221022050E0D180E23
:107E3700100F101010D8A423EF3FF025EF3FF02DBF
:107E4700EF3FF0010E0D6E000E0E6E000E0F6E006E
:107E57000E106E074A082A67EF3EF0000E0A6E06FC
:107E67000E096E0ABE42EF3FF00A5006E10904D838
:107E7700B040EF3FF042EF3FF044EF3FF0FFEF3FFE
:107E8700F009C001F0010E0126010E026E012A4F12
:107E9700EF3FF0D8900236012E4DEF3FF009C003B7
:107EA700F0010E046E032A5BEF3FF0D8900436030F
:107EB7002E59EF3FF009C005F0FF0E0526010E060B
:107EC7006E052A69EF3FF0D8900636052E67EF3F1B
:107ED700F00650042402248C6E0D040E100F1010AF
:107EE70010D8A479EF3FF07BEF3FF084EF3FF082AB
:107EF7000E016EDE0EE82EFED7012EFCD7D2EF3F25
:107F0700F0020E0D180E100F101010D8A48EEF3FB0
:107F1700F090EF3FF09EEF3FF0020E026E040E016D
:107F27006EBA0EE82EFED7012EFCD7022EFAD70026
:107F3700D0D2EF3FF0030E0D180E100F101010D80F
:107F4700A4A8EF3FF0AAEF3FF0B8EF3FF0030E020F
:107F57006E080E016E770EE82EFED7012EFCD702B3
:107F67002EFAD700F0D2EF3FF0040E0D180E100FC7
:107F7700101010D8A4C2EF3FF0C4EF3FF0D2EF3F8C
:107F8700F0050E026E0F0E016EF10EE82EFED70100
:107F97002EFCD7022EFAD700F0D2EF3FF081BCD7E4
:107FA700EF3FF0D9EF3FF0FAEF3FF0820E016EDEC0
:107FB7000EE82EFED7012EFCD7010E0D26000E0E61
:107FC700220F221022050E0D180E100F101010D8B8
:107FD700A4F0EF3FF0F2EF3FF0FAEF3FF0010E0DA4
:107FE7006E000E0E6E000E0F6E000E106E0906D894
:097FF700A00A0635EF3FF012006C
:020000040020DA
:08000000FFFFFFFFFFFFFFFF00
:020000040030CA
:0E00000000091F1EFF8181FF0FC00FE00F409F
:00000001FF
